{
  "contractName": "InsaneClownPonzi",
  "abi": [
    {
      "inputs": [],
      "stateMutability": "nonpayable",
      "type": "constructor"
    },
    {
      "anonymous": false,
      "inputs": [
        {
          "indexed": true,
          "internalType": "address",
          "name": "owner",
          "type": "address"
        },
        {
          "indexed": true,
          "internalType": "address",
          "name": "approved",
          "type": "address"
        },
        {
          "indexed": true,
          "internalType": "uint256",
          "name": "tokenId",
          "type": "uint256"
        }
      ],
      "name": "Approval",
      "type": "event"
    },
    {
      "anonymous": false,
      "inputs": [
        {
          "indexed": true,
          "internalType": "address",
          "name": "owner",
          "type": "address"
        },
        {
          "indexed": true,
          "internalType": "address",
          "name": "operator",
          "type": "address"
        },
        {
          "indexed": false,
          "internalType": "bool",
          "name": "approved",
          "type": "bool"
        }
      ],
      "name": "ApprovalForAll",
      "type": "event"
    },
    {
      "anonymous": false,
      "inputs": [
        {
          "indexed": false,
          "internalType": "address",
          "name": "account",
          "type": "address"
        },
        {
          "indexed": false,
          "internalType": "uint256",
          "name": "amount",
          "type": "uint256"
        }
      ],
      "name": "Deposit",
      "type": "event"
    },
    {
      "anonymous": false,
      "inputs": [
        {
          "indexed": true,
          "internalType": "address",
          "name": "from",
          "type": "address"
        },
        {
          "indexed": true,
          "internalType": "address",
          "name": "to",
          "type": "address"
        },
        {
          "indexed": true,
          "internalType": "uint256",
          "name": "tokenId",
          "type": "uint256"
        }
      ],
      "name": "Transfer",
      "type": "event"
    },
    {
      "anonymous": false,
      "inputs": [
        {
          "indexed": false,
          "internalType": "address",
          "name": "account",
          "type": "address"
        },
        {
          "indexed": false,
          "internalType": "uint256",
          "name": "amount",
          "type": "uint256"
        }
      ],
      "name": "Withdraw",
      "type": "event"
    },
    {
      "inputs": [
        {
          "internalType": "address",
          "name": "to",
          "type": "address"
        },
        {
          "internalType": "uint256",
          "name": "tokenId",
          "type": "uint256"
        }
      ],
      "name": "approve",
      "outputs": [],
      "stateMutability": "nonpayable",
      "type": "function"
    },
    {
      "inputs": [
        {
          "internalType": "address",
          "name": "owner",
          "type": "address"
        }
      ],
      "name": "balanceOf",
      "outputs": [
        {
          "internalType": "uint256",
          "name": "",
          "type": "uint256"
        }
      ],
      "stateMutability": "view",
      "type": "function",
      "constant": true
    },
    {
      "inputs": [
        {
          "internalType": "uint256",
          "name": "tokenId",
          "type": "uint256"
        }
      ],
      "name": "getApproved",
      "outputs": [
        {
          "internalType": "address",
          "name": "",
          "type": "address"
        }
      ],
      "stateMutability": "view",
      "type": "function",
      "constant": true
    },
    {
      "inputs": [
        {
          "internalType": "address",
          "name": "owner",
          "type": "address"
        },
        {
          "internalType": "address",
          "name": "operator",
          "type": "address"
        }
      ],
      "name": "isApprovedForAll",
      "outputs": [
        {
          "internalType": "bool",
          "name": "",
          "type": "bool"
        }
      ],
      "stateMutability": "view",
      "type": "function",
      "constant": true
    },
    {
      "inputs": [],
      "name": "name",
      "outputs": [
        {
          "internalType": "string",
          "name": "",
          "type": "string"
        }
      ],
      "stateMutability": "view",
      "type": "function",
      "constant": true
    },
    {
      "inputs": [
        {
          "internalType": "uint256",
          "name": "tokenId",
          "type": "uint256"
        }
      ],
      "name": "ownerOf",
      "outputs": [
        {
          "internalType": "address",
          "name": "",
          "type": "address"
        }
      ],
      "stateMutability": "view",
      "type": "function",
      "constant": true
    },
    {
      "inputs": [
        {
          "internalType": "address",
          "name": "from",
          "type": "address"
        },
        {
          "internalType": "address",
          "name": "to",
          "type": "address"
        },
        {
          "internalType": "uint256",
          "name": "tokenId",
          "type": "uint256"
        }
      ],
      "name": "safeTransferFrom",
      "outputs": [],
      "stateMutability": "nonpayable",
      "type": "function"
    },
    {
      "inputs": [
        {
          "internalType": "address",
          "name": "from",
          "type": "address"
        },
        {
          "internalType": "address",
          "name": "to",
          "type": "address"
        },
        {
          "internalType": "uint256",
          "name": "tokenId",
          "type": "uint256"
        },
        {
          "internalType": "bytes",
          "name": "_data",
          "type": "bytes"
        }
      ],
      "name": "safeTransferFrom",
      "outputs": [],
      "stateMutability": "nonpayable",
      "type": "function"
    },
    {
      "inputs": [
        {
          "internalType": "address",
          "name": "operator",
          "type": "address"
        },
        {
          "internalType": "bool",
          "name": "approved",
          "type": "bool"
        }
      ],
      "name": "setApprovalForAll",
      "outputs": [],
      "stateMutability": "nonpayable",
      "type": "function"
    },
    {
      "inputs": [
        {
          "internalType": "bytes4",
          "name": "interfaceId",
          "type": "bytes4"
        }
      ],
      "name": "supportsInterface",
      "outputs": [
        {
          "internalType": "bool",
          "name": "",
          "type": "bool"
        }
      ],
      "stateMutability": "view",
      "type": "function",
      "constant": true
    },
    {
      "inputs": [],
      "name": "symbol",
      "outputs": [
        {
          "internalType": "string",
          "name": "",
          "type": "string"
        }
      ],
      "stateMutability": "view",
      "type": "function",
      "constant": true
    },
    {
      "inputs": [
        {
          "internalType": "uint256",
          "name": "index",
          "type": "uint256"
        }
      ],
      "name": "tokenByIndex",
      "outputs": [
        {
          "internalType": "uint256",
          "name": "",
          "type": "uint256"
        }
      ],
      "stateMutability": "view",
      "type": "function",
      "constant": true
    },
    {
      "inputs": [
        {
          "internalType": "address",
          "name": "owner",
          "type": "address"
        },
        {
          "internalType": "uint256",
          "name": "index",
          "type": "uint256"
        }
      ],
      "name": "tokenOfOwnerByIndex",
      "outputs": [
        {
          "internalType": "uint256",
          "name": "",
          "type": "uint256"
        }
      ],
      "stateMutability": "view",
      "type": "function",
      "constant": true
    },
    {
      "inputs": [
        {
          "internalType": "uint256",
          "name": "tokenId",
          "type": "uint256"
        }
      ],
      "name": "tokenURI",
      "outputs": [
        {
          "internalType": "string",
          "name": "",
          "type": "string"
        }
      ],
      "stateMutability": "view",
      "type": "function",
      "constant": true
    },
    {
      "inputs": [],
      "name": "totalSupply",
      "outputs": [
        {
          "internalType": "uint256",
          "name": "",
          "type": "uint256"
        }
      ],
      "stateMutability": "view",
      "type": "function",
      "constant": true
    },
    {
      "inputs": [
        {
          "internalType": "address",
          "name": "from",
          "type": "address"
        },
        {
          "internalType": "address",
          "name": "to",
          "type": "address"
        },
        {
          "internalType": "uint256",
          "name": "tokenId",
          "type": "uint256"
        }
      ],
      "name": "transferFrom",
      "outputs": [],
      "stateMutability": "nonpayable",
      "type": "function"
    },
    {
      "stateMutability": "payable",
      "type": "receive",
      "payable": true
    },
    {
      "inputs": [],
      "name": "claimClown",
      "outputs": [],
      "stateMutability": "nonpayable",
      "type": "function"
    },
    {
      "inputs": [],
      "name": "claimAllClowns",
      "outputs": [],
      "stateMutability": "nonpayable",
      "type": "function"
    },
    {
      "inputs": [],
      "name": "withdraw",
      "outputs": [],
      "stateMutability": "nonpayable",
      "type": "function"
    },
    {
      "inputs": [
        {
          "internalType": "address",
          "name": "recipient",
          "type": "address"
        },
        {
          "internalType": "uint256",
          "name": "tokenId",
          "type": "uint256"
        }
      ],
      "name": "transfer",
      "outputs": [],
      "stateMutability": "nonpayable",
      "type": "function"
    },
    {
      "inputs": [],
      "name": "owner",
      "outputs": [
        {
          "internalType": "address",
          "name": "",
          "type": "address"
        }
      ],
      "stateMutability": "view",
      "type": "function",
      "constant": true
    },
    {
      "inputs": [],
      "name": "totalInvested",
      "outputs": [
        {
          "internalType": "uint256",
          "name": "",
          "type": "uint256"
        }
      ],
      "stateMutability": "view",
      "type": "function",
      "constant": true
    },
    {
      "inputs": [
        {
          "internalType": "address",
          "name": "account",
          "type": "address"
        }
      ],
      "name": "bchBalanceOf",
      "outputs": [
        {
          "internalType": "uint256",
          "name": "",
          "type": "uint256"
        }
      ],
      "stateMutability": "view",
      "type": "function",
      "constant": true
    },
    {
      "inputs": [
        {
          "internalType": "address",
          "name": "account",
          "type": "address"
        }
      ],
      "name": "clownPointsOf",
      "outputs": [
        {
          "internalType": "uint256",
          "name": "",
          "type": "uint256"
        }
      ],
      "stateMutability": "view",
      "type": "function",
      "constant": true
    },
    {
      "inputs": [],
      "name": "clownPrice",
      "outputs": [
        {
          "internalType": "uint256",
          "name": "",
          "type": "uint256"
        }
      ],
      "stateMutability": "view",
      "type": "function",
      "constant": true
    },
    {
      "inputs": [
        {
          "internalType": "address",
          "name": "account",
          "type": "address"
        }
      ],
      "name": "invested",
      "outputs": [
        {
          "internalType": "uint256",
          "name": "",
          "type": "uint256"
        }
      ],
      "stateMutability": "view",
      "type": "function",
      "constant": true
    }
  ],
  "bytecode": "0x6080604052662386f26fc100006011553480156200001c57600080fd5b506040805180820182526012815271496e73616e6520436c6f776e20506f6e7a6960701b60208083019182528351808501909452600384526204943560ec1b9084015281519192916200007291600091620000a3565b50805162000088906001906020840190620000a3565b5050600b80546001600160a01b031916331790555062000186565b828054620000b19062000149565b90600052602060002090601f016020900481019282620000d5576000855562000120565b82601f10620000f057805160ff191683800117855562000120565b8280016001018555821562000120579182015b828111156200012057825182559160200191906001019062000103565b506200012e92915062000132565b5090565b5b808211156200012e576000815560010162000133565b600181811c908216806200015e57607f821691505b602082108114156200018057634e487b7160e01b600052602260045260246000fd5b50919050565b61212780620001966000396000f3fe6080604052600436106101855760003560e01c806366b3f6bf116100d1578063b0799cf91161008a578063c78e9beb11610064578063c78e9beb146108ec578063c87b56dd14610901578063df52e12514610921578063e985e9c514610936576105e3565b8063b0799cf914610881578063b88d4fde14610896578063c6fbe189146108b6576105e3565b806366b3f6bf146107b857806370a08231146107ee5780638da5cb5b1461080e57806395d89b411461082c578063a22cb46514610841578063a9059cbb14610861576105e3565b80632f745c591161013e5780634f2303b3116101185780634f2303b31461072d5780634f6ccce7146107635780635216aeec146107835780636352211e14610798576105e3565b80632f745c59146106d85780633ccfd60b146106f857806342842e0e1461070d576105e3565b806301ffc9a7146105e857806306fdde031461061d578063081812fc1461063f578063095ea7b31461067757806318160ddd1461069957806323b872dd146106b8576105e3565b366105e35766038d7ea4c680003410156101e65760405162461bcd60e51b815260206004820152601a60248201527f4943503a204d696e696d756d2076616c7565206e6f74206d657400000000000060448201526064015b60405180910390fd5b3460006101f4600a83611f91565b90506102008183611fc4565b60105490925061024157600b80546001600160a01b039081166000908152600d60209081526040808320349081905594549093168252600e905220556103cb565b6008546102ac57600b546001600160a01b03166000908152600d602052604081208054839290610272908490611f79565b9091555050600b546001600160a01b03166000908152600e6020526040812080548392906102a1908490611f79565b909155506103cb9050565b60006102b9600283611f91565b905060006102c78284611fc4565b600b546001600160a01b03166000908152600d60205260408120805492935084929091906102f6908490611f79565b9091555050600b546001600160a01b03166000908152600e602052604081208054849290610325908490611f79565b909155505060085460009061033a9083611f91565b905060005b6008548110156103c65760006103548261097f565b6001600160a01b0381166000908152600d6020526040812080549293508592909190610381908490611f79565b90915550506001600160a01b0381166000908152600e6020526040812080548592906103ae908490611f79565b909155506103bf9150829050612042565b905061033f565b505050505b60005b601054811015610512576000600c54600f60006010858154811061040257634e487b7160e01b600052603260045260246000fd5b60009182526020808320909101546001600160a01b031683528201929092526040019020546104319086611fa5565b61043b9190611f91565b905080600d60006010858154811061046357634e487b7160e01b600052603260045260246000fd5b60009182526020808320909101546001600160a01b0316835282019290925260400181208054909190610497908490611f79565b9250508190555080600e6000601085815481106104c457634e487b7160e01b600052603260045260246000fd5b60009182526020808320909101546001600160a01b03168352820192909252604001812080549091906104f8908490611f79565b9091555082915061050a905081612042565b9150506103ce565b50336000908152600f602052604090205461056a57601080546001810182556000919091527f1b6847dc741a1b0cd08d278845f9d819d87b734759afb55fe2de5cb82a9ae6720180546001600160a01b031916331790555b336000908152600f602052604081208054349290610589908490611f79565b9250508190555034600c60008282546105a29190611f79565b9091555050604080513381523460208201527fe1fffcc4923d04b559f4d29a8bfc6cda04eb5b0d3c460751c2402c5c5cc9109c910160405180910390a15050005b600080fd5b3480156105f457600080fd5b50610608610603366004611ddb565b6109fe565b60405190151581526020015b60405180910390f35b34801561062957600080fd5b50610632610a23565b6040516106149190611ec3565b34801561064b57600080fd5b5061065f61065a366004611e13565b610ab5565b6040516001600160a01b039091168152602001610614565b34801561068357600080fd5b50610697610692366004611db2565b610b4a565b005b3480156106a557600080fd5b506008545b604051908152602001610614565b3480156106c457600080fd5b506106976106d3366004611c68565b610c60565b3480156106e457600080fd5b506106aa6106f3366004611db2565b610c91565b34801561070457600080fd5b50610697610d27565b34801561071957600080fd5b50610697610728366004611c68565b610e01565b34801561073957600080fd5b506106aa610748366004611c1c565b6001600160a01b03166000908152600d602052604090205490565b34801561076f57600080fd5b506106aa61077e366004611e13565b610e1c565b34801561078f57600080fd5b50600c546106aa565b3480156107a457600080fd5b5061065f6107b3366004611e13565b61097f565b3480156107c457600080fd5b506106aa6107d3366004611c1c565b6001600160a01b03166000908152600f602052604090205490565b3480156107fa57600080fd5b506106aa610809366004611c1c565b610ebd565b34801561081a57600080fd5b50600b546001600160a01b031661065f565b34801561083857600080fd5b50610632610f44565b34801561084d57600080fd5b5061069761085c366004611d78565b610f53565b34801561086d57600080fd5b5061069761087c366004611db2565b611025565b34801561088d57600080fd5b5061069761105a565b3480156108a257600080fd5b506106976108b1366004611ca3565b611081565b3480156108c257600080fd5b506106aa6108d1366004611c1c565b6001600160a01b03166000908152600e602052604090205490565b3480156108f857600080fd5b506011546106aa565b34801561090d57600080fd5b5061063261091c366004611e13565b6110b9565b34801561092d57600080fd5b50610697611194565b34801561094257600080fd5b50610608610951366004611c36565b6001600160a01b03918216600090815260056020908152604080832093909416825291909152205460ff1690565b6000818152600260205260408120546001600160a01b0316806109f65760405162461bcd60e51b815260206004820152602960248201527f4552433732313a206f776e657220717565727920666f72206e6f6e657869737460448201526832b73a103a37b5b2b760b91b60648201526084016101dd565b90505b919050565b60006001600160e01b0319821663780e9d6360e01b14806109f657506109f682611265565b606060008054610a3290612007565b80601f0160208091040260200160405190810160405280929190818152602001828054610a5e90612007565b8015610aab5780601f10610a8057610100808354040283529160200191610aab565b820191906000526020600020905b815481529060010190602001808311610a8e57829003601f168201915b5050505050905090565b6000818152600260205260408120546001600160a01b0316610b2e5760405162461bcd60e51b815260206004820152602c60248201527f4552433732313a20617070726f76656420717565727920666f72206e6f6e657860448201526b34b9ba32b73a103a37b5b2b760a11b60648201526084016101dd565b506000908152600460205260409020546001600160a01b031690565b6000610b558261097f565b9050806001600160a01b0316836001600160a01b03161415610bc35760405162461bcd60e51b815260206004820152602160248201527f4552433732313a20617070726f76616c20746f2063757272656e74206f776e656044820152603960f91b60648201526084016101dd565b336001600160a01b0382161480610bdf5750610bdf8133610951565b610c515760405162461bcd60e51b815260206004820152603860248201527f4552433732313a20617070726f76652063616c6c6572206973206e6f74206f7760448201527f6e6572206e6f7220617070726f76656420666f7220616c6c000000000000000060648201526084016101dd565b610c5b83836112b5565b505050565b610c6a3382611323565b610c865760405162461bcd60e51b81526004016101dd90611f28565b610c5b83838361141a565b6000610c9c83610ebd565b8210610cfe5760405162461bcd60e51b815260206004820152602b60248201527f455243373231456e756d657261626c653a206f776e657220696e646578206f7560448201526a74206f6620626f756e647360a81b60648201526084016101dd565b506001600160a01b03919091166000908152600660209081526040808320938352929052205490565b336000908152600d6020526040902054610d835760405162461bcd60e51b815260206004820152601f60248201527f4943503a204d757374206861766520706f7369746976652062616c616e63650060448201526064016101dd565b336000818152600d6020526040808220805490839055905190929183156108fc02918491818181858888f19350505050158015610dc4573d6000803e3d6000fd5b5060408051338152602081018390527f884edad9ce6fa2440d8a54cc123490eb96d2768479d49ff9c7366125a9424364910160405180910390a150565b610c5b83838360405180602001604052806000815250611081565b6000610e2760085490565b8210610e8a5760405162461bcd60e51b815260206004820152602c60248201527f455243373231456e756d657261626c653a20676c6f62616c20696e646578206f60448201526b7574206f6620626f756e647360a01b60648201526084016101dd565b60088281548110610eab57634e487b7160e01b600052603260045260246000fd5b90600052602060002001549050919050565b60006001600160a01b038216610f285760405162461bcd60e51b815260206004820152602a60248201527f4552433732313a2062616c616e636520717565727920666f7220746865207a65604482015269726f206164647265737360b01b60648201526084016101dd565b506001600160a01b031660009081526003602052604090205490565b606060018054610a3290612007565b6001600160a01b038216331415610fac5760405162461bcd60e51b815260206004820152601960248201527f4552433732313a20617070726f766520746f2063616c6c65720000000000000060448201526064016101dd565b3360008181526005602090815260408083206001600160a01b0387168085529252909120805460ff1916841515179055906001600160a01b03167f17307eab39ab6107e8899845ad3d59bd9653f200f220920489ca2b5937696c3183604051611019911515815260200190565b60405180910390a35050565b61102f3382611323565b61104b5760405162461bcd60e51b81526004016101dd90611f28565b61105633838361141a565b5050565b601154336000908152600e60205260409020541061107f5761107a611194565b61105a565b565b61108b3383611323565b6110a75760405162461bcd60e51b81526004016101dd90611f28565b6110b3848484846115c5565b50505050565b6000818152600260205260409020546060906001600160a01b03166111385760405162461bcd60e51b815260206004820152602f60248201527f4552433732314d657461646174613a2055524920717565727920666f72206e6f60448201526e3732bc34b9ba32b73a103a37b5b2b760891b60648201526084016101dd565b60006111426115f8565b90506000815111611162576040518060200160405280600081525061118d565b8061116c84611618565b60405160200161117d929190611e57565b6040516020818303038152906040525b9392505050565b601154336000908152600e602052604090205410156111f55760405162461bcd60e51b815260206004820152601d60248201527f4943503a20496e737566666963656e7420636c6f776e20706f696e747300000060448201526064016101dd565b601154336000908152600e602052604081208054909190611217908490611fc4565b909155505060115461122c906107e590611f91565b6011600082825461123d9190611f79565b9091555050600a80546001019055600061125660085490565b90506112623382611733565b50565b60006001600160e01b031982166380ac58cd60e01b148061129657506001600160e01b03198216635b5e139f60e01b145b806109f657506301ffc9a760e01b6001600160e01b03198316146109f6565b600081815260046020526040902080546001600160a01b0319166001600160a01b03841690811790915581906112ea8261097f565b6001600160a01b03167f8c5be1e5ebec7d5bd14f71427d1e84f3dd0314c0f7b2291e5b200ac8c7c3b92560405160405180910390a45050565b6000818152600260205260408120546001600160a01b031661139c5760405162461bcd60e51b815260206004820152602c60248201527f4552433732313a206f70657261746f7220717565727920666f72206e6f6e657860448201526b34b9ba32b73a103a37b5b2b760a11b60648201526084016101dd565b60006113a78361097f565b9050806001600160a01b0316846001600160a01b031614806113e25750836001600160a01b03166113d784610ab5565b6001600160a01b0316145b8061141257506001600160a01b0380821660009081526005602090815260408083209388168352929052205460ff165b949350505050565b826001600160a01b031661142d8261097f565b6001600160a01b0316146114955760405162461bcd60e51b815260206004820152602960248201527f4552433732313a207472616e73666572206f6620746f6b656e2074686174206960448201526839903737ba1037bbb760b91b60648201526084016101dd565b6001600160a01b0382166114f75760405162461bcd60e51b8152602060048201526024808201527f4552433732313a207472616e7366657220746f20746865207a65726f206164646044820152637265737360e01b60648201526084016101dd565b611502838383611881565b61150d6000826112b5565b6001600160a01b0383166000908152600360205260408120805460019290611536908490611fc4565b90915550506001600160a01b0382166000908152600360205260408120805460019290611564908490611f79565b909155505060008181526002602052604080822080546001600160a01b0319166001600160a01b0386811691821790925591518493918716917fddf252ad1be2c89b69c2b068fc378daa952ba7f163c4a11628f55a4df523b3ef91a4505050565b6115d084848461141a565b6115dc8484848461193e565b6110b35760405162461bcd60e51b81526004016101dd90611ed6565b60606040518060600160405280602881526020016120ca60289139905090565b60608161163d57506040805180820190915260018152600360fc1b60208201526109f9565b8160005b8115611667578061165181612042565b91506116609050600a83611f91565b9150611641565b60008167ffffffffffffffff81111561169057634e487b7160e01b600052604160045260246000fd5b6040519080825280601f01601f1916602001820160405280156116ba576020820181803683370190505b5090505b8415611412576116cf600183611fc4565b91506116dc600a8661205d565b6116e7906030611f79565b60f81b81838151811061170a57634e487b7160e01b600052603260045260246000fd5b60200101906001600160f81b031916908160001a90535061172c600a86611f91565b94506116be565b6001600160a01b0382166117895760405162461bcd60e51b815260206004820181905260248201527f4552433732313a206d696e7420746f20746865207a65726f206164647265737360448201526064016101dd565b6000818152600260205260409020546001600160a01b0316156117ee5760405162461bcd60e51b815260206004820152601c60248201527f4552433732313a20746f6b656e20616c7265616479206d696e7465640000000060448201526064016101dd565b6117fa60008383611881565b6001600160a01b0382166000908152600360205260408120805460019290611823908490611f79565b909155505060008181526002602052604080822080546001600160a01b0319166001600160a01b03861690811790915590518392907fddf252ad1be2c89b69c2b068fc378daa952ba7f163c4a11628f55a4df523b3ef908290a45050565b6001600160a01b0383166118dc576118d781600880546000838152600960205260408120829055600182018355919091527ff3f7a9fe364faab93b216da50a3214154f22a0a2b415b23a84c8169e8b636ee30155565b6118ff565b816001600160a01b0316836001600160a01b0316146118ff576118ff8382611a4b565b6001600160a01b03821661191b5761191681611ae8565b610c5b565b826001600160a01b0316826001600160a01b031614610c5b57610c5b8282611bc1565b60006001600160a01b0384163b15611a4057604051630a85bd0160e11b81526001600160a01b0385169063150b7a0290611982903390899088908890600401611e86565b602060405180830381600087803b15801561199c57600080fd5b505af19250505080156119cc575060408051601f3d908101601f191682019092526119c991810190611df7565b60015b611a26573d8080156119fa576040519150601f19603f3d011682016040523d82523d6000602084013e6119ff565b606091505b508051611a1e5760405162461bcd60e51b81526004016101dd90611ed6565b805181602001fd5b6001600160e01b031916630a85bd0160e11b149050611412565b506001949350505050565b60006001611a5884610ebd565b611a629190611fc4565b600083815260076020526040902054909150808214611ab5576001600160a01b03841660009081526006602090815260408083208584528252808320548484528184208190558352600790915290208190555b5060009182526007602090815260408084208490556001600160a01b039094168352600681528383209183525290812055565b600854600090611afa90600190611fc4565b60008381526009602052604081205460088054939450909284908110611b3057634e487b7160e01b600052603260045260246000fd5b906000526020600020015490508060088381548110611b5f57634e487b7160e01b600052603260045260246000fd5b6000918252602080832090910192909255828152600990915260408082208490558582528120556008805480611ba557634e487b7160e01b600052603160045260246000fd5b6001900381819060005260206000200160009055905550505050565b6000611bcc83610ebd565b6001600160a01b039093166000908152600660209081526040808320868452825280832085905593825260079052919091209190915550565b80356001600160a01b03811681146109f957600080fd5b600060208284031215611c2d578081fd5b61118d82611c05565b60008060408385031215611c48578081fd5b611c5183611c05565b9150611c5f60208401611c05565b90509250929050565b600080600060608486031215611c7c578081fd5b611c8584611c05565b9250611c9360208501611c05565b9150604084013590509250925092565b60008060008060808587031215611cb8578081fd5b611cc185611c05565b9350611ccf60208601611c05565b925060408501359150606085013567ffffffffffffffff80821115611cf2578283fd5b818701915087601f830112611d05578283fd5b813581811115611d1757611d1761209d565b604051601f8201601f19908116603f01168101908382118183101715611d3f57611d3f61209d565b816040528281528a6020848701011115611d57578586fd5b82602086016020830137918201602001949094529598949750929550505050565b60008060408385031215611d8a578182fd5b611d9383611c05565b915060208301358015158114611da7578182fd5b809150509250929050565b60008060408385031215611dc4578182fd5b611dcd83611c05565b946020939093013593505050565b600060208284031215611dec578081fd5b813561118d816120b3565b600060208284031215611e08578081fd5b815161118d816120b3565b600060208284031215611e24578081fd5b5035919050565b60008151808452611e43816020860160208601611fdb565b601f01601f19169290920160200192915050565b60008351611e69818460208801611fdb565b835190830190611e7d818360208801611fdb565b01949350505050565b6001600160a01b0385811682528416602082015260408101839052608060608201819052600090611eb990830184611e2b565b9695505050505050565b60006020825261118d6020830184611e2b565b60208082526032908201527f4552433732313a207472616e7366657220746f206e6f6e20455243373231526560408201527131b2b4bb32b91034b6b83632b6b2b73a32b960711b606082015260800190565b60208082526031908201527f4552433732313a207472616e736665722063616c6c6572206973206e6f74206f6040820152701ddb995c881b9bdc88185c1c1c9bdd9959607a1b606082015260800190565b60008219821115611f8c57611f8c612071565b500190565b600082611fa057611fa0612087565b500490565b6000816000190483118215151615611fbf57611fbf612071565b500290565b600082821015611fd657611fd6612071565b500390565b60005b83811015611ff6578181015183820152602001611fde565b838111156110b35750506000910152565b600181811c9082168061201b57607f821691505b6020821081141561203c57634e487b7160e01b600052602260045260246000fd5b50919050565b600060001982141561205657612056612071565b5060010190565b60008261206c5761206c612087565b500690565b634e487b7160e01b600052601160045260246000fd5b634e487b7160e01b600052601260045260246000fd5b634e487b7160e01b600052604160045260246000fd5b6001600160e01b03198116811461126257600080fdfe68747470733a2f2f696e73616e65636c6f776e706f6e7a692e776f726c642f6d657461646174612fa2646970667358221220032d2bd9ceba7a74654e711a3df5d97177e0c6afb3c95da2fe3abb5744c0fb6464736f6c63430008030033",
  "immutableReferences": {},
  "source": "pragma solidity ^0.8.0;\n\n// SPDX-License-Identifier: MIT\n\nimport \"@openzeppelin/contracts/token/ERC721/extensions/ERC721Enumerable.sol\";\nimport \"@openzeppelin/contracts/utils/Counters.sol\";\n\n/// original ponzi implementation from adrianbarwicki\n/// https://github.com/adrianbarwicki/eth-ponzi-fund\ncontract InsaneClownPonzi is ERC721Enumerable {\n    using Counters for Counters.Counter;\n    Counters.Counter private _tokenIds;\n\n    address private _owner; // defi owner receives 5% of all deposits\n    uint256 private _totalInvested; // how much people have funded icp\n    mapping(address => uint256) private _bchBalances; // what is available for withdrawal\n    mapping(address => uint256) private _clownPoints; // use clown points to claim clowns\n    mapping(address => uint256) private _invested; // how much initially invested\n    address[] private _investors; // for help with iteration\n\n    // this is set by an advanced defi bonding curve\n    // it determines cost of clown to buy with clownPoints\n    uint256 private _clownPrice = 1e16; // how much bch to create a clown\n\n    // this is where clown icons reside like BASE_URI.id (concat)\n    string constant BASE_URI = \"https://insaneclownponzi.world/metadata/\";\n\n    constructor() ERC721(\"Insane Clown Ponzi\", \"ICP\") {\n        _owner = msg.sender;\n    }\n\n    event Deposit(address account, uint256 amount);\n    event Withdraw(address account, uint256 amount);\n\n    receive() external payable {\n        require(msg.value >= 1e15, \"ICP: Minimum value not met\");\n\n        uint256 dividend = msg.value;\n        uint256 totalFee = dividend / 10;\n        dividend -= totalFee;\n\n        if (_investors.length == 0) {\n            _bchBalances[_owner] = msg.value;\n            _clownPoints[_owner] = msg.value;\n        } else {\n            // half of fee goes to owner and half is distributed to clown holders\n            if (totalSupply() == 0) {\n                _bchBalances[_owner] += totalFee;\n                _clownPoints[_owner] += totalFee;\n            } else {\n                // note: a bit gets burnt here prior to first clown\n                uint256 ownerFee = totalFee / 2;\n                uint256 totalClownFee = totalFee - ownerFee;\n\n                _bchBalances[_owner] += ownerFee;\n                _clownPoints[_owner] += ownerFee;\n\n                uint256 rewardPerClown = totalClownFee / totalSupply();\n                for (uint256 i = 0; i < totalSupply(); ++i) {\n                    address clownOwner = ownerOf(i);\n\n                    _bchBalances[clownOwner] += rewardPerClown;\n                    _clownPoints[clownOwner] += rewardPerClown;\n                }\n            }\n        }\n\n        // distribute dividends\n        for (uint256 i = 0; i < _investors.length; i++) {\n            uint256 payment = (dividend * _invested[_investors[i]]) / _totalInvested;\n            _bchBalances[_investors[i]] += payment;\n            _clownPoints[_investors[i]] += payment;\n        }\n\n        // allow for iteration over invested\n        if (_invested[msg.sender] == 0) {\n            _investors.push(msg.sender);\n        }\n\n        _invested[msg.sender] += msg.value;\n\n        _totalInvested += msg.value;\n\n        emit Deposit(msg.sender, msg.value);\n    }\n\n    // this is where defi clown birth occurs\n    function claimClown() public {\n        require(_clownPoints[msg.sender] >= _clownPrice, \"ICP: Insufficent clown points\");\n\n        _clownPoints[msg.sender] -= _clownPrice;\n        _clownPrice += _clownPrice / 2021; // advanced tokenomics bonding curve\n\n        _tokenIds.increment();\n        uint256 clownId = totalSupply();\n        _mint(msg.sender, clownId);\n    }\n\n    function claimAllClowns() external {\n        while(_clownPoints[msg.sender] >= _clownPrice) {\n            claimClown();\n        }\n    }\n\n    // retrieve bch earnings\n    function withdraw() external {\n        require(_bchBalances[msg.sender] > 0, \"ICP: Must have positive balance\");\n\n        uint256 amount = _bchBalances[msg.sender];\n        _bchBalances[msg.sender] = 0;\n        payable(msg.sender).transfer(amount);\n\n        emit Withdraw(msg.sender, amount);\n    }\n\n    function transfer(\n        address recipient,\n        uint256 tokenId\n    ) external {\n        require(ERC721._isApprovedOrOwner(msg.sender, tokenId), \"ERC721: transfer caller is not owner nor approved\");\n\n        ERC721._transfer(msg.sender, recipient, tokenId);\n    }\n\n    function owner() external view returns (address) {\n        return _owner;\n    }\n\n    function totalInvested() external view returns (uint256) {\n        return _totalInvested;\n    }\n\n    function bchBalanceOf(address account) external view returns (uint256) {\n        return _bchBalances[account];\n    }\n\n    function clownPointsOf(address account) external view returns (uint256) {\n        return _clownPoints[account];\n    }\n\n    function clownPrice() external view returns (uint256) {\n        return _clownPrice;\n    }\n\n    function invested(address account) external view returns (uint256) {\n        return _invested[account];\n    }\n\n    function _baseURI() internal pure override returns (string memory) {\n        return BASE_URI;\n    }\n}\n",
  "sourcePath": "/home/computerboy/code/smartbch-ponzi-fund/contracts/InsaneClownPonzi.sol",
  "compiler": {
    "name": "solc",
    "version": "0.8.3+commit.8d00100c.Emscripten.clang"
  },
  "schemaVersion": "3.4.3",
  "updatedAt": "2021-08-21T01:18:01.994Z",
  "networkType": "ethereum",
  "devdoc": {
    "kind": "dev",
    "methods": {
      "approve(address,uint256)": {
        "details": "See {IERC721-approve}."
      },
      "balanceOf(address)": {
        "details": "See {IERC721-balanceOf}."
      },
      "getApproved(uint256)": {
        "details": "See {IERC721-getApproved}."
      },
      "isApprovedForAll(address,address)": {
        "details": "See {IERC721-isApprovedForAll}."
      },
      "name()": {
        "details": "See {IERC721Metadata-name}."
      },
      "ownerOf(uint256)": {
        "details": "See {IERC721-ownerOf}."
      },
      "safeTransferFrom(address,address,uint256)": {
        "details": "See {IERC721-safeTransferFrom}."
      },
      "safeTransferFrom(address,address,uint256,bytes)": {
        "details": "See {IERC721-safeTransferFrom}."
      },
      "setApprovalForAll(address,bool)": {
        "details": "See {IERC721-setApprovalForAll}."
      },
      "supportsInterface(bytes4)": {
        "details": "See {IERC165-supportsInterface}."
      },
      "symbol()": {
        "details": "See {IERC721Metadata-symbol}."
      },
      "tokenByIndex(uint256)": {
        "details": "See {IERC721Enumerable-tokenByIndex}."
      },
      "tokenOfOwnerByIndex(address,uint256)": {
        "details": "See {IERC721Enumerable-tokenOfOwnerByIndex}."
      },
      "tokenURI(uint256)": {
        "details": "See {IERC721Metadata-tokenURI}."
      },
      "totalSupply()": {
        "details": "See {IERC721Enumerable-totalSupply}."
      },
      "transferFrom(address,address,uint256)": {
        "details": "See {IERC721-transferFrom}."
      }
    },
    "version": 1
  },
  "userdoc": {
    "kind": "user",
    "methods": {},
    "notice": "original ponzi implementation from adrianbarwicki https://github.com/adrianbarwicki/eth-ponzi-fund",
    "version": 1
  }
}