{
  "contractName": "Migrations",
  "abi": [
    {
      "inputs": [],
      "stateMutability": "nonpayable",
      "type": "constructor"
    },
    {
      "inputs": [],
      "name": "_last_completed_migration",
      "outputs": [
        {
          "internalType": "uint256",
          "name": "",
          "type": "uint256"
        }
      ],
      "stateMutability": "view",
      "type": "function",
      "constant": true
    },
    {
      "inputs": [],
      "name": "_owner",
      "outputs": [
        {
          "internalType": "address",
          "name": "",
          "type": "address"
        }
      ],
      "stateMutability": "view",
      "type": "function",
      "constant": true
    },
    {
      "inputs": [
        {
          "internalType": "uint256",
          "name": "completed",
          "type": "uint256"
        }
      ],
      "name": "setCompleted",
      "outputs": [],
      "stateMutability": "nonpayable",
      "type": "function"
    },
    {
      "inputs": [
        {
          "internalType": "address",
          "name": "new_address",
          "type": "address"
        }
      ],
      "name": "upgrade",
      "outputs": [],
      "stateMutability": "nonpayable",
      "type": "function"
    }
  ],
  "bytecode": "0x608060405234801561001057600080fd5b50600080546001600160a01b031916331790556101d1806100326000396000f3fe608060405234801561001057600080fd5b506004361061004c5760003560e01c80630900f01014610051578063a56b9a5e14610066578063b2bdfa7b14610082578063fdacd576146100ad575b600080fd5b61006461005f366004610155565b6100c0565b005b61006f60015481565b6040519081526020015b60405180910390f35b600054610095906001600160a01b031681565b6040516001600160a01b039091168152602001610079565b6100646100bb366004610183565b61013d565b6000546001600160a01b031633141561013a57600154604051637ed66abb60e11b815282916001600160a01b0383169163fdacd576916101069160040190815260200190565b600060405180830381600087803b15801561012057600080fd5b505af1158015610134573d6000803e3d6000fd5b50505050505b50565b6000546001600160a01b031633141561013a57600155565b600060208284031215610166578081fd5b81356001600160a01b038116811461017c578182fd5b9392505050565b600060208284031215610194578081fd5b503591905056fea264697066735822122041886fd5af5c01819ed630f24e691bdba342332386ba0b1e03538452eaf9861c64736f6c63430008030033",
  "immutableReferences": {},
  "source": "pragma solidity ^0.8.0;\n\n// SPDX-License-Identifier: MIT\n\ncontract Migrations {\n    address public _owner;\n    uint256 public _last_completed_migration;\n\n    constructor() {\n        _owner = msg.sender;\n    }\n\n    modifier restricted() {\n        if (msg.sender == _owner) _;\n    }\n\n    function setCompleted(uint256 completed) public restricted {\n        _last_completed_migration = completed;\n    }\n\n    function upgrade(address new_address) public restricted {\n        Migrations upgraded = Migrations(new_address);\n        upgraded.setCompleted(_last_completed_migration);\n    }\n}\n",
  "sourcePath": "/home/computerboy/code/smartbch-ponzi-fund/contracts/Migrations.sol",
  "compiler": {
    "name": "solc",
    "version": "0.8.3+commit.8d00100c.Emscripten.clang"
  },
  "schemaVersion": "3.4.3",
  "updatedAt": "2021-08-21T01:18:01.976Z",
  "networkType": "ethereum",
  "devdoc": {
    "kind": "dev",
    "methods": {},
    "version": 1
  },
  "userdoc": {
    "kind": "user",
    "methods": {},
    "version": 1
  }
}