{
  "contractName": "PonziFund",
  "abi": [
    {
      "constant": true,
      "inputs": [
        {
          "name": "",
          "type": "address"
        }
      ],
      "name": "balances",
      "outputs": [
        {
          "name": "",
          "type": "uint256"
        }
      ],
      "payable": false,
      "stateMutability": "view",
      "type": "function"
    },
    {
      "constant": true,
      "inputs": [],
      "name": "total",
      "outputs": [
        {
          "name": "",
          "type": "uint256"
        }
      ],
      "payable": false,
      "stateMutability": "view",
      "type": "function"
    },
    {
      "constant": true,
      "inputs": [
        {
          "name": "",
          "type": "address"
        }
      ],
      "name": "invested",
      "outputs": [
        {
          "name": "",
          "type": "uint256"
        }
      ],
      "payable": false,
      "stateMutability": "view",
      "type": "function"
    },
    {
      "constant": true,
      "inputs": [],
      "name": "owner",
      "outputs": [
        {
          "name": "",
          "type": "address"
        }
      ],
      "payable": false,
      "stateMutability": "view",
      "type": "function"
    },
    {
      "inputs": [],
      "payable": false,
      "stateMutability": "nonpayable",
      "type": "constructor"
    },
    {
      "payable": true,
      "stateMutability": "payable",
      "type": "fallback"
    },
    {
      "constant": false,
      "inputs": [],
      "name": "withdraw",
      "outputs": [],
      "payable": false,
      "stateMutability": "nonpayable",
      "type": "function"
    }
  ],
  "bytecode": "0x6060604052341561000f57600080fd5b336000806101000a81548173ffffffffffffffffffffffffffffffffffffffff021916908373ffffffffffffffffffffffffffffffffffffffff1602179055506108f28061005e6000396000f30060606040526004361061006d576000357c0100000000000000000000000000000000000000000000000000000000900463ffffffff16806327e235e3146105115780632ddbd13a1461055e5780633ccfd60b1461058757806366b3f6bf1461059c5780638da5cb5b146105e9575b6000806000349250600060048054905014156100ed5734600360008060009054906101000a900473ffffffffffffffffffffffffffffffffffffffff1673ffffffffffffffffffffffffffffffffffffffff1673ffffffffffffffffffffffffffffffffffffffff168152602001908152602001600020819055506100fe565b6100f68361063e565b915081830392505b600090505b6004805490508110156103ba5760006003600060048481548110151561012557fe5b906000526020600020900160009054906101000a900473ffffffffffffffffffffffffffffffffffffffff1673ffffffffffffffffffffffffffffffffffffffff1673ffffffffffffffffffffffffffffffffffffffff16815260200190815260200160002054141561029d57600154600260006004848154811015156101a857fe5b906000526020600020900160009054906101000a900473ffffffffffffffffffffffffffffffffffffffff1673ffffffffffffffffffffffffffffffffffffffff1673ffffffffffffffffffffffffffffffffffffffff16815260200190815260200160002054840281151561021a57fe5b046003600060048481548110151561022e57fe5b906000526020600020900160009054906101000a900473ffffffffffffffffffffffffffffffffffffffff1673ffffffffffffffffffffffffffffffffffffffff1673ffffffffffffffffffffffffffffffffffffffff168152602001908152602001600020819055506103ad565b600154600260006004848154811015156102b357fe5b906000526020600020900160009054906101000a900473ffffffffffffffffffffffffffffffffffffffff1673ffffffffffffffffffffffffffffffffffffffff1673ffffffffffffffffffffffffffffffffffffffff16815260200190815260200160002054840281151561032557fe5b046003600060048481548110151561033957fe5b906000526020600020900160009054906101000a900473ffffffffffffffffffffffffffffffffffffffff1673ffffffffffffffffffffffffffffffffffffffff1673ffffffffffffffffffffffffffffffffffffffff168152602001908152602001600020600082825401925050819055505b8080600101915050610103565b6000600260003373ffffffffffffffffffffffffffffffffffffffff1673ffffffffffffffffffffffffffffffffffffffff1681526020019081526020016000205414156104ae57600480548060010182816104169190610875565b9160005260206000209001600033909190916101000a81548173ffffffffffffffffffffffffffffffffffffffff021916908373ffffffffffffffffffffffffffffffffffffffff1602179055505034600260003373ffffffffffffffffffffffffffffffffffffffff1673ffffffffffffffffffffffffffffffffffffffff168152602001908152602001600020819055506104fc565b34600260003373ffffffffffffffffffffffffffffffffffffffff1673ffffffffffffffffffffffffffffffffffffffff168152602001908152602001600020600082825401925050819055505b34600160008282540192505081905550505050005b341561051c57600080fd5b610548600480803573ffffffffffffffffffffffffffffffffffffffff169060200190919050506106c2565b6040518082815260200191505060405180910390f35b341561056957600080fd5b6105716106da565b6040518082815260200191505060405180910390f35b341561059257600080fd5b61059a6106e0565b005b34156105a757600080fd5b6105d3600480803573ffffffffffffffffffffffffffffffffffffffff16906020019091905050610838565b6040518082815260200191505060405180910390f35b34156105f457600080fd5b6105fc610850565b604051808273ffffffffffffffffffffffffffffffffffffffff1673ffffffffffffffffffffffffffffffffffffffff16815260200191505060405180910390f35b6000600a8281151561064c57fe5b04905080600360008060009054906101000a900473ffffffffffffffffffffffffffffffffffffffff1673ffffffffffffffffffffffffffffffffffffffff1673ffffffffffffffffffffffffffffffffffffffff16815260200190815260200160002060008282540192505081905550919050565b60036020528060005260406000206000915090505481565b60015481565b600080600360003373ffffffffffffffffffffffffffffffffffffffff1673ffffffffffffffffffffffffffffffffffffffff16815260200190815260200160002054141561072e57600080fd5b600360003373ffffffffffffffffffffffffffffffffffffffff1673ffffffffffffffffffffffffffffffffffffffff1681526020019081526020016000205490506000600360003373ffffffffffffffffffffffffffffffffffffffff1673ffffffffffffffffffffffffffffffffffffffff168152602001908152602001600020819055503373ffffffffffffffffffffffffffffffffffffffff166108fc829081150290604051600060405180830381858888f1935050505015156108355780600360003373ffffffffffffffffffffffffffffffffffffffff1673ffffffffffffffffffffffffffffffffffffffff168152602001908152602001600020819055505b50565b60026020528060005260406000206000915090505481565b6000809054906101000a900473ffffffffffffffffffffffffffffffffffffffff1681565b81548183558181151161089c5781836000526020600020918201910161089b91906108a1565b5b505050565b6108c391905b808211156108bf5760008160009055506001016108a7565b5090565b905600a165627a7a72305820dac8f4248595d0dbb88c1c20fa4727ba9be95230bd3dadc0b87a403ebe73f6270029",
  "source": "pragma solidity ^0.4.0;\n\n/// @title PonziFund\n///  @author adrianbarwicki\ncontract PonziFund {\n    address public owner;\n    uint public total;\n    mapping (address => uint) public invested;\n    mapping (address => uint) public balances;\n    \n\n    address[] investors;\n\n    modifier checkZeroBalance() { if (balances[msg.sender] == 0) { throw; } _;}\n\n\tfunction PonziFund() {\n\t\towner = msg.sender;\n\t}\n\n    // fund manager fee\n    function ownerFee(uint amount) private returns (uint fee) {\n        fee = amount / 10;\n        balances[owner] += fee;\n\n        return;\n    }\n\n    function withdraw()\n    checkZeroBalance()\n    {\n        uint amount = balances[msg.sender];\n        balances[msg.sender] = 0;\n\n        if (!msg.sender.send(amount)) {\n            balances[msg.sender] = amount;\n        }\n    }\n\n    // fallback to accept funds\n\tfunction () payable\n    {\n        uint dividend = msg.value;\n\n        // first investment goes completely to the fund manager.\n        if (investors.length == 0) {\n            balances[owner] = msg.value;\n        } else {\n            uint fee = ownerFee(dividend);\n\n            dividend -= fee;\n        }\n        \n     \n         // distribute dividends\n         for (uint i = 0; i < investors.length; i++) {\n           if (balances[investors[i]] == 0) {\n                balances[investors[i]] = dividend * invested[investors[i]] / total;\n           } else {\n               balances[investors[i]] += dividend * invested[investors[i]] / total;\n           }\n         }\n\n        if (invested[msg.sender] == 0) {\n            investors.push(msg.sender);\n            invested[msg.sender] = msg.value;\n        } else {\n            invested[msg.sender] += msg.value;\n        }\n\n        total += msg.value;\n\t}\n}",
  "sourcePath": "/Users/viciceo/Develop/marketplace-technology/projects/ponzi/contracts/PonziFund.sol",
  "compiler": {
    "name": "solc",
    "version": "0.4.19+commit.c4cbbb05.Emscripten.clang"
  },
  "schemaVersion": "2.0.0",
  "updatedAt": "2018-03-30T23:19:01.395Z"
}